:020000000328D3
:100006008316031386018312860188013F3086001A
:100016000330FB000830FC007730FD00FD0B112893
:10002600FC0B1128FB0B1128063086000330FB0061
:100036000830FC007730FD00FD0B1F28FC0B1F2845
:10004600FB0B1F285B3086000330FB000830FC00EA
:100056007730FD00FD0B2D28FC0B2D28FB0B2D28E2
:100066004F3086000330FB000830FC007730FD007F
:10007600FD0B3B28FC0B3B28FB0B3B286630860020
:100086000330FB000830FC007730FD00FD0B4928EB
:10009600FC0B4928FB0B49286D3086000330FB001A
:1000A6000830FC007730FD00FD0B5728FC0B572865
:1000B600FB0B57287C3086000330FB000830FC0021
:1000C6007730FD00FD0B6528FC0B6528FB0B6528CA
:1000D600073086000330FB000830FC007730FD0057
:1000E600FD0B7328FC0B7328FB0B73287F308600EF
:1000F6000330FB000830FC007730FD00FD0B812843
:10010600FC0B8128FB0B81286F3086000330FB0037
:100116008A30FC005530FD00FD0B8F28FC0B8F2824
:10012600FB0B8F28000000000810081C9C283F309D
:0C01360086008810881C9F280928A0283B
:02400E004A2F37
:00000001FF
