:020000000129D4
:10000600103083120313FD00FD0B072800000800C3
:10001600083083120313FC002330FD00FD0B11286A
:06002600FC0B112808008C
:04002C0000000800C8
:1000300083120313C51B1E2888131F288817451B0E
:100040002328081324280817C51A282888122928C5
:100050008816451A2D2808122E2808163F1832280F
:10006000081533280811881516208811C5193A2853
:1000700088133B28881745193F280813402808177C
:10008000C51844288812452888164518492808129A
:100090004A2808163F184E2808154F2808118815B9
:1000A000162088113F1C56280B20572803200800D3
:0E00B000831203133E088A003D0882000800F8
:1000BE00831203133F104408C50018203F14080094
:1000CE008316031388110811081288120813881357
:1000DE0083128811081188130813881208120B2036
:1000EE000B200B20881608168815162088110B2059
:1000FE008815162088110B208815162088110B20C4
:10010E0008128815162088110B20881516208811C4
:10011E00881288178815162088110B208813081648
:10012E0088151620881108128815162088110B20A4
:10013E0088151620881108168815162088110B2090
:10014E0008128815162088118817081788160816A1
:0C015E008815162088110B203F140800A3
:10016A00C728803083120313C000DA28C030C000C9
:10017A00DA289430C000DA28D430C000DA28803077
:10018A00C000DA28831203134008013A0319B6287B
:10019A004008023A0319BB284008033A0319BE284B
:1001AA004008043A0319C128C4284103F000400852
:1001BA00F0077008C0007008C50018203F10C3017E
:1001CA0043084207840000080319F328430842073A
:1001DA0084000008C4005F20C30AE5283F14080011
:1001EA0058208A110A128000840ABD0A0319BE0A1D
:0801FA00F003031DF5280800C5
:10020200493083120313A0007330A1007430A2009E
:100212006130A3006E30A4006230A5007530A600E4
:100222006C30A7002030A8003330A9003030AA007B
:100232003030AB002030AC006B30AD006D30AE0022
:10024200AF014830B0006130B1007630B2006130A9
:10025200B3002030B4006230B5007530B6006C30A7
:10026200B7007530B8007430B9006C30BA00753020
:10027200BB00BC0167200C30C50018200130C5004E
:1002820018200130C0000130C1002030C200B5206A
:100292000230C0000130C1003030C200B520861FDC
:1002A20058290C30C5001820861F58295529861E4A
:1002B20060290830C5001820861E60295D29061FA6
:1002C20068290130C5001820061F68296529061E05
:1002D20070291830C5001820061E70296D29502972
:0202E200712980
:02400E004A2F37
:00000001FF
