:020000002728AF
:0C000600053083128500123086000800CF
:0C0012000530831285001B3086000800BA
:0C001E00053083128500243086000800A5
:0C002A00053083128500093086000800B4
:0C0036000A3083128500093086000800A3
:0C0042000530831285000930860008009C
:10004E0083120E182C2805122D28051683168501ED
:10005E0083128501831686018312860109200B30D7
:10006E00CB002630CC005D30CD00CD0B3C28CC0B28
:10007E003C28CB0B3C28000000000F203330CB0077
:10008E00BB30CC00DF30CD00CD0B4B28CC0B4B283A
:10009E00CB0B4B280000000003200B30CB0026308A
:1000AE00CC005D30CD00CD0B5A28CC0B5A28CB0B93
:1000BE005A280000000015200330CB008A30CC00F7
:1000CE005530CD00CD0B6928CC0B6928CB0B692898
:1000DE00000000001B202430CB008330CC00CF303A
:1000EE00CD00CD0B7828CC0B7828CB0B782821208F
:1000FE000B30CB002630CC005D30CD00CD0B8528EB
:10010E00CC0B8528CB0B85280000000035288E28C7
:02400E00FA3F77
:00000001FF
